:1000000058140020410D00003D0D00003D0D000082
:100010003D0D00003D0D00003D0D00000000000002
:100020000000000000000000000000003D0D000086
:100030003D0D0000000000003D0D00003D0D0000E2
:100040003D0D00003D0D00003D0D00003D0D000088
:100050003D0D00003D0D00003D0D00003D0D000078
:100060003D0D00003D0D00003D0D00003D0D000068
:100070003D0D00003D0D00003D0D00003D0D000058
:100080003D0D00003D0D00003D0D00003D0D000048
:100090003D0D00003D0D00003D0D00003D0D000038
:1000A0003D0D00003D0D00003D0D00003D0D000028
:1000B0003D0D00003D0D00003D0D00003D0D000018
:1000C0003D0D00003D0D00003D0D00003D0D000008
:1000D0003D0D00003D0D00003D0D00003D0D0000F8
:1000E0003D0D00003D0D00003D0D00003D0D0000E8
:1000F0003D0D00003D0D00003D0D00003D0D0000D8
:100100003D0D00003D0D00003D0D00003D0D0000C7
:100110003D0D00003D0D00003D0D00003D0D0000B7
:100120003D0D00003D0D00003D0D00003D0D0000A7
:100130003D0D00003D0D00003D0D00003D0D000097
:100140003D0D00003D0D00003D0D00003D0D000087
:100150003D0D00003D0D00003D0D00003D0D000077
:100160003D0D00003D0D00003D0D00003D0D000067
:100170003D0D00003D0D00003D0D00003D0D000057
:1001800008B50548054B1B1A062B00D808BD044BC3
:10019000002BFBD09847F9E7580F00005B0F0000D9
:1001A0000000000008B50748074B1B1A9B1003EB23
:1001B000D373591000D108BD044A002AFBD09047E0
:1001C000F9E700BF580F0000580F000000000000C2
:1001D00010B5064C237843B9FFF7D2FF044B13B197
:1001E0000448AFF300800123237010BD38040020C1
:1001F00000000000580F000008B5084B1BB108486C
:100200000849AFF300800848036813B1074B03B1F6
:100210009847BDE80840FFF7C5BF00BF00000000D9
:10022000580F00003C040020580F000000000000A0
:1002300070B4EFF3108272B6BFF35F8F00240D4BE2
:100240001C7085000C4B53F82040012606FA01F182
:100250002143203505F47F7545F02A45074CA565F7
:1002600043F8201022B9034B1E70BFF35F8F62B6B4
:1002700070BC70470000002020000E4000000E40BF
:1002800070B4EFF3108272B6BFF35F8F00240E4B91
:100290001C7085000D4B53F82040012606FA01F131
:1002A00024EA0101203505F47F7545F02A45084C04
:1002B000A56543F8201022B9034B1E70BFF35F8F72
:1002C00062B670BC704700BF0000002020000E40E6
:1002D00000000E4038B50446EFF3108572B6BFF348
:1002E0005F8F00220A4B1A700A4B9B6A1BB90120D0
:1002F0000521094B98472DB90122054B1A70BFF310
:100300005F8F62B602202146034B984738BD00BF7D
:100310000000002000000E403102000010B5014630
:1003200002200C4B9847EFF3108472B6BFF35F8F37
:100330000022094B1A70094B9B6A1BB90120052149
:10034000044B98472CB90122034B1A70BFF35F8FFF
:1003500062B610BD810200000000002000000E40C7
:1003600038B50446EFF3108572B6BFF35F8F0022F5
:100370000A4B1A700A4BDB6A1BB901200621094B94
:1003800098472DB90122054B1A70BFF35F8F62B6F3
:1003900003202146034B984738BD00BF00000020D2
:1003A00000000E403102000010B5014603200C4B46
:1003B0009847EFF3108472B6BFF35F8F0022094BAA
:1003C0001A70094BDB6A1BB901200621044B9847C0
:1003D0002CB90122034B1A70BFF35F8F62B610BDB8
:1003E000810200000000002000000E4008B5B34B61
:1003F000984200F05A816AD8A3F5A023984200F0F1
:1004000013812FD8A3F58033984200F0F28014D8DE
:10041000A3F58033984200F0D28004D8B0F1402F89
:1004200000F0C98008BDA64B984200F0CC8003F5CF
:100430008043984200F0D28008BDA24B984200F061
:10044000E08005D8A3F57053984200F0D68008BD2F
:100450009D4B984200F0D98003F5F843984200F094
:10046000D88008BD994B984200F0078115D8A3F5B4
:100470008033984200F0EE8005D8A3F5804398427F
:1004800000F0DD8008BD924B984200F0EE8003F54D
:100490008043984200F0ED8008BD8E4B984200F0FA
:1004A000F8800AD8A3F50043984200F0EA8003F5EB
:1004B0008043984200F0E98008BD874B984200F0E5
:1004C000EC8003F58043984200F0EB8008BD834B3D
:1004D000984200F04D8134D8A3F57C33984200F067
:1004E000278115D8A3F50433984200F00D8105D873
:1004F000A3F58043984200F0DC8008BD784B984219
:1005000000F0068103F58063984200F0098108BD80
:10051000744B984200F020810AD8A3F540539842CA
:1005200000F00A8103F50053984200F00D8108BDE8
:100530006D4B984200F0188103F52043984235D066
:1005400008BD6A4B984200F02C8115D8A3F578437A
:10055000984200F0178105D8A3F58063984200F017
:100560000C8108BD624B984200F0118103F5806355
:10057000984200F0118108BD5E4B984200F0208146
:100580000AD8A3F50063984200F0108103F5806358
:10059000984200F0108108BD574B984200F0158139
:1005A00003F58063984200F0158108BD0120092100
:1005B000524B984708BD0020514B984708BD012079
:1005C0004F4B984708BD02204D4B9847434B1A6C40
:1005D00042F055024B4999651A6408BD0320484B07
:1005E00098473E4B1A6C42F05502464999651A6489
:1005F00008BD0420424B984708BD0520404B984752
:1006000008BD06203E4B984708BD07203C4B984745
:1006100008BD08203A4B9847304B1A6C42F0040250
:10062000384999651A6408BD0920354B98472B4B0A
:100630001A6C42F00402334999651A6408BD0A2015
:100640002F4B9847254B1A6C42F004022D499965AF
:100650001A6408BD0B202A4B9847204B1A6C42F0B5
:100660000402284999651A6408BD0C20244B984758
:1006700008BD0D20224B984708BD0E20204B9847FF
:1006800008BD0F201E4B984708BD10201C4B9847F3
:1006900008BD11201A4B984708BD1220184B9847E7
:1006A00008BD1320164B984708BD1520144B9847DA
:1006B00008BD1620124B984708BD00BF00800740B8
:1006C0000000014000C0014000C40140000004409F
:1006D000008003400080064000C0064000000E403D
:1006E00000000A4000500A4000600A4000000F402D
:1006F000000C0E40000C0F4000100F4031020000B3
:10070000D5020000400000AA1720354B984708BDCD
:1007100001200146334B98470020334B984708BDD2
:10072000012002212F4B984701202F4B984708BDED
:1007300002202D4B984708BD01200021294B9847E6
:100740000320294B984708BD01200421254B9847D9
:100750000420254B984708BD01200321214B9847D1
:100760000520214B984708BD06201F4B984708BD20
:10077000042000211B4B984708BD04200121194B80
:10078000984708BD04200221164B984708BD042055
:100790000321144B984708BD04200146114B98478C
:1007A00008BD052000210F4B984708BD05200121F9
:1007B0000C4B984708BD052002210A4B984708BDFD
:1007C00005200321074B984708BD05200421054B50
:1007D000984708BD05200146024B984708BD00BF59
:1007E000D5020000310200006103000008B5B44BDF
:1007F000984200F030816AD8A3F5A023984200F017
:10080000FE802FD8A3F58033984200F0E48014D8FE
:10081000A3F58033984200F0D28004D8B0F1402F85
:1008200000F0C98008BDA74B984200F0CC8003F5CA
:100830008043984200F0CB8008BDA34B984200F063
:10084000D28005D8A3F57053984200F0C88008BD47
:100850009E4B984200F0CB8003F5F843984200F09D
:10086000CA8008BD9A4B984200F0DD8015D8A3F5E8
:100870008033984200F0CB8005D8A3F5804398429E
:1008800000F0C18008BD934B984200F0C48003F58E
:100890008043984200F0C38008BD8F4B984200F01F
:1008A000CE800AD8A3F50043984200F0C08003F53B
:1008B0008043984200F0BF8008BD884B984200F00A
:1008C000C28003F58043984200F0C18008BD844B8C
:1008D000984200F01F8134D8A3F57C33984200F091
:1008E000D28015D8A3F50433984200F0BC8005D817
:1008F000A3F58043984200F0B28008BD794B98423E
:1009000000F0B58003F58063984200F0B48008BD24
:10091000754B984200F0CB800AD8A3F5405398421B
:1009200000F0B58003F50053984200F0B88008BD90
:100930006E4B984200F0EA8003F52043984235D090
:1009400008BD6B4B984200F0FE8015D8A3F57843A4
:10095000984200F0E98005D8A3F58063984200F042
:10096000DE8008BD634B984200F0E38003F58063AE
:10097000984200F0E38008BD5F4B984200F0F2809F
:100980000AD8A3F50063984200F0E28003F5806383
:10099000984200F0E28008BD584B984200F0E78092
:1009A00003F58063984200F0E78008BD012009212B
:1009B000534B9847E4E00020524B9847E0E0012079
:1009C000504B9847DCE002204E4B9847D8E003207C
:1009D0004C4B9847D4E004204A4B9847D0E0052080
:1009E000484B9847CCE00620464B9847C8E0072084
:1009F000444B9847C4E00820424B9847C0E0092088
:100A0000404B9847BCE00A203E4B9847B8E00B208B
:100A10003C4B9847B4E00C203A4B9847B0E00D208F
:100A2000384B9847ACE00E20364B9847A8E00F2093
:100A3000344B9847A4E01020324B9847A0E0112097
:100A4000304B98479CE012202E4B984798E013209B
:100A50002C4B984794E015202A4B984790E016209D
:100A6000284B98478CE01720264B984788E00020B9
:100A7000254B984784E001200221214B9847012013
:100A8000214B98477CE002201F4B984778E00120DB
:100A900000211B4B984703201B4B984770E0012017
:100AA0000421174B98470420174B984768E0012012
:100AB0000321134B98470520134B984760E000BF74
:100AC000008007400000014000C0014000C4014018
:100AD00000000440008003400080064000C0064043
:100AE00000000E4000000A4000500A4000600A402A
:100AF00000000F40000C0E40000C0F4000100F4093
:100B0000810200001D030000A90300000620234B02
:100B1000984735E004200021214B984730E004201D
:100B200001211F4B98472BE0042002211C4B9847C2
:100B300026E0042003211A4B984721E004200146B7
:100B4000174B98471CE005200021154B984717E0EC
:100B500005200121124B984712E005200221104B7D
:100B600098470DE0052003210D4B984708E005202C
:100B700004210B4B984703E005200146084B98479A
:100B8000084B9B6A13F00B0F06D1064B1A6C22F030
:100B90007F02054999651A6408BD00BFA9030000DA
:100BA0008102000000000E40400000AA00B587B09E
:100BB0006846124B984704A811496A46114B98475A
:100BC00004A8114B98471148114B9847114B8022AC
:100BD0005A64C3F868215A654FF080729A64C3F86A
:100BE00064215A67C3F88820C3F8C820C3F80821D5
:100BF0009A619A629A6307B05DF804FB510C000099
:100C0000000C0F40690C0000150D000000100E4094
:100C1000ED03000000140E4082B00C4B1B6813F46F
:100C2000003F0CBF022308230193019BDB080193C3
:100C3000019B5A1E0192002BFAD140F0AA42034BAD
:100C40001A6040F02A40186002B07047000C0F4054
:100C500000230360436010220272437201228272F9
:100C6000C2720373704700BF38B50C461546016069
:100C700042600846244B9847236813F0080F41D17F
:100C8000236813F0010F08D0206820F001001F4BEB
:100C90009847236813F0010FFBD1236813F4803FBA
:100CA00008D0206820F48030184B9847236813F44C
:100CB000803FFBD16A682B681343287A000200F456
:100CC000F8501843697A890401F4F8010843AB7AB3
:100CD000002B0CBF002180210843EB7A002B0CBFB6
:100CE000002302231843094DA847206840F48030B0
:100CF000A847236813F4803FFBD02046044B984755
:100D0000012038BD002038BDED030000190C0000A3
:100D1000ED07000010B50468206820F00100054BC5
:100D20009847236813F0010FFBD12046024B9847E8
:100D300010BD00BF190C0000ED070000FEE700BF6A
:100D400010B5194B194A9A4203D0194B164A9A42C8
:100D500004D3184B184A9A420FD31AE0174B184C79
:100D6000E41A24F00304043400230F480F495A58AE
:100D70001A500433A342FAD1EBE7124B1249C91AB5
:100D800021F003011A1D1144002243F8042F8B4265
:100D9000FBD10E4B0E4A22F07F029A600D4B984712
:100DA0000D4B9847FEE700BF00000020580F0000E1
:100DB00038040020540400203804002004000020DF
:100DC0003B040020340400204F04002000ED00E02C
:100DD00000000000350E0000DD0D000008B5054BD9
:100DE0009847054B80211A6E12F0807F0CBF9965E1
:100DF0005965F8E7AD0B000000140E4001460020D5
:100E00000246034600F03CB838B5084D084C641B58
:100E1000A41005EB840524B155F8043D013C984726
:100E2000F9E7BDE8384000F08FB800BF540F00006C
:100E3000580F000070B50E4B0E4DED1AAD1000248A
:100E40001E46AC4204D056F8242090470134F8E7FF
:100E500000F070F8084D094BED1AAD1000241E4645
:100E6000AC4204D056F8242090470134F8E770BD16
:100E7000400F0000400F0000480F0000400F00002E
:100E80002DE9F8439846224B1C680646D4F84801E1
:100E90000F46914618B904F5A670C4F84801436896
:100EA0001F2B16DD1B4B1BB94FF0FF30BDE8F8833D
:100EB0004FF4C870AFF300800028F5D0D4F8481183
:100EC000016000254560C4F84801C0F88851C0F8A9
:100ED0008C5144689EB100EB84050122C5F88890CE
:100EE000D0F88811A2401143022EC0F88811C5F82D
:100EF000088104D1D0F88C311A43C0F88C21631CCE
:100F00000234436040F824700020BDE8F88300BF3D
:100F10002C0F000000000000024B13B10248FFF745
:100F20006DBF704700000000090E00001000002097
:100F300043000000F8B500BFF8BC08BC9E467047EF
:100F4000190F0000F9010000F8B500BFF8BC08BC9B
:080F50009E467047D10100002C
:100F58000100000000000000100000200000000058
:100F680000000000FC02002064030020CC030020E5
:100F78000000000000000000000000000000000069
:100F88000000000000000000000000000000000059
:100F980000000000300F000000000000000000000A
:100FA8000000000000000000000000000000000039
:100FB8000000000000000000000000000000000029
:100FC8000000000000000000000000000000000019
:100FD8000000000000000000000000000000000009
:100FE80000000000000000000000000000000000F9
:100FF80000000000000000000000000000000000E9
:1010080000000000000000000100000000000000D7
:101018000E33CDAB34126DE6ECDE05000B0000009C
:1010280000000000000000000000000000000000B8
:1010380000000000000000000000000000000000A8
:101048000000000000000000000000000000000098
:101058000000000000000000000000000000000088
:0400000300000D41AB
:00000001FF
